{
  "_format": "hh-sol-artifact-1",
  "contractName": "WakeUpPoints",
  "sourceName": "contracts/wakeup.sol",
  "abi": [
    {
      "anonymous": false,
      "inputs": [
        {
          "indexed": true,
          "internalType": "address",
          "name": "user",
          "type": "address"
        },
        {
          "indexed": false,
          "internalType": "uint256",
          "name": "totalPoints",
          "type": "uint256"
        }
      ],
      "name": "PointsRewarded",
      "type": "event"
    },
    {
      "anonymous": false,
      "inputs": [
        {
          "indexed": true,
          "internalType": "address",
          "name": "userAddress",
          "type": "address"
        },
        {
          "indexed": false,
          "internalType": "string",
          "name": "username",
          "type": "string"
        },
        {
          "indexed": false,
          "internalType": "string",
          "name": "email",
          "type": "string"
        }
      ],
      "name": "UserRegistered",
      "type": "event"
    },
    {
      "inputs": [
        {
          "internalType": "address",
          "name": "_userAddress",
          "type": "address"
        }
      ],
      "name": "getUser",
      "outputs": [
        {
          "internalType": "string",
          "name": "",
          "type": "string"
        },
        {
          "internalType": "string",
          "name": "",
          "type": "string"
        },
        {
          "internalType": "uint256",
          "name": "",
          "type": "uint256"
        }
      ],
      "stateMutability": "view",
      "type": "function"
    },
    {
      "inputs": [
        {
          "internalType": "string",
          "name": "_username",
          "type": "string"
        },
        {
          "internalType": "string",
          "name": "_email",
          "type": "string"
        }
      ],
      "name": "register",
      "outputs": [],
      "stateMutability": "nonpayable",
      "type": "function"
    },
    {
      "inputs": [],
      "name": "rewardOnWakeUp",
      "outputs": [],
      "stateMutability": "nonpayable",
      "type": "function"
    },
    {
      "inputs": [
        {
          "internalType": "address",
          "name": "",
          "type": "address"
        }
      ],
      "name": "users",
      "outputs": [
        {
          "internalType": "string",
          "name": "username",
          "type": "string"
        },
        {
          "internalType": "string",
          "name": "email",
          "type": "string"
        },
        {
          "internalType": "bool",
          "name": "exists",
          "type": "bool"
        },
        {
          "internalType": "uint256",
          "name": "points",
          "type": "uint256"
        }
      ],
      "stateMutability": "view",
      "type": "function"
    }
  ],
  "bytecode": "0x6080604052348015600f57600080fd5b5061103b8061001f6000396000f3fe608060405234801561001057600080fd5b506004361061004c5760003560e01c806330fadfa2146100515780633ffbd47f1461005b5780636f77926b14610077578063a87430ba146100a9575b600080fd5b6100596100dc565b005b610075600480360381019061007091906108e0565b610254565b005b610091600480360381019061008c91906109b6565b6103f3565b6040516100a093929190610a7b565b60405180910390f35b6100c360048036038101906100be91906109b6565b610639565b6040516100d39493929190610adb565b60405180910390f35b6000803373ffffffffffffffffffffffffffffffffffffffff1673ffffffffffffffffffffffffffffffffffffffff16815260200190815260200160002060020160009054906101000a900460ff1661016a576040517f08c379a000000000000000000000000000000000000000000000000000000000815260040161016190610b7a565b60405180910390fd5b600a6000803373ffffffffffffffffffffffffffffffffffffffff1673ffffffffffffffffffffffffffffffffffffffff16815260200190815260200160002060030160008282546101bc9190610bc9565b925050819055503373ffffffffffffffffffffffffffffffffffffffff167f86fa8f38ea6968563224262d313b8cfb6cc8997659ed992e5e194f44322e2b136000803373ffffffffffffffffffffffffffffffffffffffff1673ffffffffffffffffffffffffffffffffffffffff1681526020019081526020016000206003015460405161024a9190610bfd565b60405180910390a2565b6000803373ffffffffffffffffffffffffffffffffffffffff1673ffffffffffffffffffffffffffffffffffffffff16815260200190815260200160002060020160009054906101000a900460ff16156102e3576040517f08c379a00000000000000000000000000000000000000000000000000000000081526004016102da90610c64565b60405180910390fd5b604051806080016040528083815260200182815260200160011515815260200160008152506000803373ffffffffffffffffffffffffffffffffffffffff1673ffffffffffffffffffffffffffffffffffffffff168152602001908152602001600020600082015181600001908161035b9190610e90565b5060208201518160010190816103719190610e90565b5060408201518160020160006101000a81548160ff021916908315150217905550606082015181600301559050503373ffffffffffffffffffffffffffffffffffffffff167f92822564bab8864c3a47b34e8d23fbce5c46234eb5da261f94087b995ac0f33b83836040516103e7929190610f62565b60405180910390a25050565b60608060008060008573ffffffffffffffffffffffffffffffffffffffff1673ffffffffffffffffffffffffffffffffffffffff16815260200190815260200160002060020160009054906101000a900460ff16610486576040517f08c379a000000000000000000000000000000000000000000000000000000000815260040161047d90610fe5565b60405180910390fd5b60008060008673ffffffffffffffffffffffffffffffffffffffff1673ffffffffffffffffffffffffffffffffffffffff1681526020019081526020016000206040518060800160405290816000820180546104e190610cb3565b80601f016020809104026020016040519081016040528092919081815260200182805461050d90610cb3565b801561055a5780601f1061052f5761010080835404028352916020019161055a565b820191906000526020600020905b81548152906001019060200180831161053d57829003601f168201915b5050505050815260200160018201805461057390610cb3565b80601f016020809104026020016040519081016040528092919081815260200182805461059f90610cb3565b80156105ec5780601f106105c1576101008083540402835291602001916105ec565b820191906000526020600020905b8154815290600101906020018083116105cf57829003601f168201915b505050505081526020016002820160009054906101000a900460ff161515151581526020016003820154815250509050806000015181602001518260600151935093509350509193909250565b600060205280600052604060002060009150905080600001805461065c90610cb3565b80601f016020809104026020016040519081016040528092919081815260200182805461068890610cb3565b80156106d55780601f106106aa576101008083540402835291602001916106d5565b820191906000526020600020905b8154815290600101906020018083116106b857829003601f168201915b5050505050908060010180546106ea90610cb3565b80601f016020809104026020016040519081016040528092919081815260200182805461071690610cb3565b80156107635780601f1061073857610100808354040283529160200191610763565b820191906000526020600020905b81548152906001019060200180831161074657829003601f168201915b5050505050908060020160009054906101000a900460ff16908060030154905084565b6000604051905090565b600080fd5b600080fd5b600080fd5b600080fd5b6000601f19601f8301169050919050565b7f4e487b7100000000000000000000000000000000000000000000000000000000600052604160045260246000fd5b6107ed826107a4565b810181811067ffffffffffffffff8211171561080c5761080b6107b5565b5b80604052505050565b600061081f610786565b905061082b82826107e4565b919050565b600067ffffffffffffffff82111561084b5761084a6107b5565b5b610854826107a4565b9050602081019050919050565b82818337600083830152505050565b600061088361087e84610830565b610815565b90508281526020810184848401111561089f5761089e61079f565b5b6108aa848285610861565b509392505050565b600082601f8301126108c7576108c661079a565b5b81356108d7848260208601610870565b91505092915050565b600080604083850312156108f7576108f6610790565b5b600083013567ffffffffffffffff81111561091557610914610795565b5b610921858286016108b2565b925050602083013567ffffffffffffffff81111561094257610941610795565b5b61094e858286016108b2565b9150509250929050565b600073ffffffffffffffffffffffffffffffffffffffff82169050919050565b600061098382610958565b9050919050565b61099381610978565b811461099e57600080fd5b50565b6000813590506109b08161098a565b92915050565b6000602082840312156109cc576109cb610790565b5b60006109da848285016109a1565b91505092915050565b600081519050919050565b600082825260208201905092915050565b60005b83811015610a1d578082015181840152602081019050610a02565b60008484015250505050565b6000610a34826109e3565b610a3e81856109ee565b9350610a4e8185602086016109ff565b610a57816107a4565b840191505092915050565b6000819050919050565b610a7581610a62565b82525050565b60006060820190508181036000830152610a958186610a29565b90508181036020830152610aa98185610a29565b9050610ab86040830184610a6c565b949350505050565b60008115159050919050565b610ad581610ac0565b82525050565b60006080820190508181036000830152610af58187610a29565b90508181036020830152610b098186610a29565b9050610b186040830185610acc565b610b256060830184610a6c565b95945050505050565b7f55736572206e6f74207265676973746572656400000000000000000000000000600082015250565b6000610b646013836109ee565b9150610b6f82610b2e565b602082019050919050565b60006020820190508181036000830152610b9381610b57565b9050919050565b7f4e487b7100000000000000000000000000000000000000000000000000000000600052601160045260246000fd5b6000610bd482610a62565b9150610bdf83610a62565b9250828201905080821115610bf757610bf6610b9a565b5b92915050565b6000602082019050610c126000830184610a6c565b92915050565b7f5573657220616c72656164792072656769737465726564000000000000000000600082015250565b6000610c4e6017836109ee565b9150610c5982610c18565b602082019050919050565b60006020820190508181036000830152610c7d81610c41565b9050919050565b7f4e487b7100000000000000000000000000000000000000000000000000000000600052602260045260246000fd5b60006002820490506001821680610ccb57607f821691505b602082108103610cde57610cdd610c84565b5b50919050565b60008190508160005260206000209050919050565b60006020601f8301049050919050565b600082821b905092915050565b600060088302610d467fffffffffffffffffffffffffffffffffffffffffffffffffffffffffffffffff82610d09565b610d508683610d09565b95508019841693508086168417925050509392505050565b6000819050919050565b6000610d8d610d88610d8384610a62565b610d68565b610a62565b9050919050565b6000819050919050565b610da783610d72565b610dbb610db382610d94565b848454610d16565b825550505050565b600090565b610dd0610dc3565b610ddb818484610d9e565b505050565b5b81811015610dff57610df4600082610dc8565b600181019050610de1565b5050565b601f821115610e4457610e1581610ce4565b610e1e84610cf9565b81016020851015610e2d578190505b610e41610e3985610cf9565b830182610de0565b50505b505050565b600082821c905092915050565b6000610e6760001984600802610e49565b1980831691505092915050565b6000610e808383610e56565b9150826002028217905092915050565b610e99826109e3565b67ffffffffffffffff811115610eb257610eb16107b5565b5b610ebc8254610cb3565b610ec7828285610e03565b600060209050601f831160018114610efa5760008415610ee8578287015190505b610ef28582610e74565b865550610f5a565b601f198416610f0886610ce4565b60005b82811015610f3057848901518255600182019150602085019450602081019050610f0b565b86831015610f4d5784890151610f49601f891682610e56565b8355505b6001600288020188555050505b505050505050565b60006040820190508181036000830152610f7c8185610a29565b90508181036020830152610f908184610a29565b90509392505050565b7f55736572206e6f7420666f756e64000000000000000000000000000000000000600082015250565b6000610fcf600e836109ee565b9150610fda82610f99565b602082019050919050565b60006020820190508181036000830152610ffe81610fc2565b905091905056fea26469706673582212202db9803636bf8b9e58170ee59d552314a72c57999267657ead87d507f6c5edc464736f6c634300081c0033",
  "linkReferences": {},
  "deployedLinkReferences": {}
}